{
  "contractName": "Count",
  "abi": [
    {
      "constant": true,
      "inputs": [],
      "name": "count",
      "outputs": [
        {
          "name": "",
          "type": "uint256"
        }
      ],
      "payable": false,
      "stateMutability": "view",
      "type": "function"
    },
    {
      "constant": true,
      "inputs": [],
      "name": "lastParticipant",
      "outputs": [
        {
          "name": "",
          "type": "address"
        }
      ],
      "payable": false,
      "stateMutability": "view",
      "type": "function"
    },
    {
      "constant": false,
      "inputs": [],
      "name": "plus",
      "outputs": [],
      "payable": false,
      "stateMutability": "nonpayable",
      "type": "function"
    },
    {
      "constant": false,
      "inputs": [],
      "name": "minus",
      "outputs": [],
      "payable": false,
      "stateMutability": "nonpayable",
      "type": "function"
    }
  ],
  "bytecode": "0x60806040526000805534801561001457600080fd5b506101ce806100246000396000f3fe608060405234801561001057600080fd5b506004361061004c5760003560e01c806306661abd1461005157806314434fa51461006f57806318b0c3fd14610079578063bfe7e4e314610083575b600080fd5b6100596100cd565b6040518082815260200191505060405180910390f35b6100776100d3565b005b610081610128565b005b61008b61017c565b604051808273ffffffffffffffffffffffffffffffffffffffff1673ffffffffffffffffffffffffffffffffffffffff16815260200191505060405180910390f35b60005481565b60008081548092919060019003919050555033600160006101000a81548173ffffffffffffffffffffffffffffffffffffffff021916908373ffffffffffffffffffffffffffffffffffffffff160217905550565b600080815480929190600101919050555033600160006101000a81548173ffffffffffffffffffffffffffffffffffffffff021916908373ffffffffffffffffffffffffffffffffffffffff160217905550565b600160009054906101000a900473ffffffffffffffffffffffffffffffffffffffff168156fea165627a7a723058203613ca77325bef5820f8dc69af75f5dfcbe0dfe2536460df9f1aa9de246d0cc00029",
  "source": "pragma solidity ^0.5.6;\n\n/*\n  * storage variables *\n  Count contract has 2 public storage variables.\n\n  1) count - By default, count's value is 0,\n             it could increase or decrease through `plus` or `minus` function.\n  2) lastParticipant - lastParticipant is last person's address\n                       who sent a transaction(called plus or minus) to Count contract.\n  Count contract.\n\n  * functions *\n  Count contract has 2 public functions.\n  1) plus - increase `count` storage variable by 1. (+1)\n  2) minus - decrease `count` storage variable by 1. (-1)\n */\n\ncontract Count {\n  uint public count = 0;\n  address public lastParticipant;\n\n  function plus() public {\n    count++;\n    lastParticipant = msg.sender;\n  }\n\n  function minus() public {\n    count--;\n    lastParticipant = msg.sender;\n  }\n}\n",
  "sourcePath": "/home/kim/project/contracts/Count.sol",
  "compiler": {
    "name": "solc",
    "version": "0.5.6+commit.b259423e.Emscripten.clang"
  },
  "schemaVersion": "3.2.3",
  "updatedAt": "2020-08-17T08:24:55.877Z",
  "networkType": "ethereum",
  "devdoc": {
    "methods": {}
  },
  "userdoc": {
    "methods": {}
  }
}